:020000040001F9
:10B0000080310020F5B001000FB1010011B1010045
:10B010000000000000000000000000000000000030
:10B0200000000000000000000000000013B101005B
:10B03000000000000000000015B1010017B1010080
:10B0400019B1010019B1010001B5010019B10100E8
:10B0500019B101000000000081B2010019B1010026
:10B0600019B1010019B1010019B1010019B10100B4
:10B0700019B1010019B1010019B1010019B10100A4
:10B0800019B1010019B4010019B1010019B1010091
:10B0900039B4010019B1010041B4010019B1010036
:10B0A00019B1010019B1010000000000000000000A
:10B0B0000000000000000000000000000000000090
:10B0C0000348854600F09EF80048004745E6010029
:10B0D00080310020401E00BF00BF00BF00BF00BF86
:10B0E00000BF00BF00BF00BF00BF00BF00BFF1D165
:10B0F000704700000321094802680A4302600848BB
:10B1000002680A4302600748804707480047FEE795
:10B11000FEE7FEE7FEE7FEE7FEE70000240500404D
:10B120005405004061B40100C1B0010030B50B46C8
:10B13000014600202022012409E00D46D5409D4211
:10B1400005D31D469540491B254695404019154697
:10B15000521E002DF1DC30BD70B5002425460028BC
:10B1600001DA01244042002901DA01254942FFF7B2
:10B17000DDFFAC4200D04042002C00D0494270BDFF
:10B1800003460B439B0703D009E008C9121F08C000
:10B19000042AFAD203E00B780370401C491C521EAB
:10B1A000F9D27047D2B201E00270401C491EFBD2B6
:10B1B00070470022F6E710B513460A4604461946C2
:10B1C000FFF7F0FF204610BD421C0178401C00290B
:10B1D000FBD1801A704730B504460020034600E0DA
:10B1E0005B1C934203D2E05CCD5C401BF8D030BDC9
:10B1F0000321001D401E037812021A43491EF9D58F
:10B2000010467047064C0125064E05E0E36807CC62
:10B210002B430C3C98471034B442F7D3FFF754FF4C
:10B22000400002006000020070B58C180578401CD8
:10B230006B075B0F01D10378401C2A1106D10278FD
:10B24000401C03E006780E70401C491C5B1EF9D1BF
:10B250002B0705D40023521E0DD40B70491CFAE7AE
:10B260000378401CCB1A921C03E01D780D70491C1A
:10B270005B1C521EF9D5A142D8D3002070BD00003E
:10B28000F0B50025FF248BB0013401262F4601952F
:10B29000204603F05FFC002808D047484068304251
:10B2A00004D046480021201835430160241D760053
:10B2B0007F1CA4B2042FEBD3FF207D3003F04AFCA7
:10B2C000002807D03E4800210160400705433D4863
:10B2D000006901903C4C280712D0012700262F421C
:10B2E0000AD03A48B200111808690969C004C00EB2
:10B2F0008903A258890F90477F00761C042EEED355
:10B30000002D57DA00200590401E4DE0A119403174
:10B3100008788506AD0E42B2521C39D00121A940F1
:10B32000089A0091114233D080090390284601F019
:10B3300055FD800020580490002802D1039803286E
:10B3400026D103980099032802D105980843059057
:10B350001F4AA80080180068019A8003800F1142DC
:10B3600002D0022802D013E0032811D10399032947
:10B3700007D102281CD00221284603F0DBFB7F1CEA
:10B38000FFB20498002803D0049A284603999047F6
:10B39000761C042EBAD3002F0CD00A4800690199FC
:10B3A000884207D00190059800273E460890ADE7F7
:10B3B0000321E1E70BB0F0BD0063004000600040F6
:10B3C0007C61004000050050C82700200065004057
:10B3D000000700508307FF22DB0E9A408907090E01
:10B3E000994000280BDA0007000F08388308084846
:10B3F0009B001818C36993430B43C36170478308CC
:10B4000004489B001B181868904308431860704755
:10B4100000ED00E000E400E010B5064900200860FF
:10B4200048608860C860034940390860486004F09B
:10B43000B7FB10BD4011014010B504F047FB10BD33
:10B4400010B506484068002805D08047002801D084
:10B4500000F026FA10BD02F061FF10BDD0210020DF
:10B4600010B502F0A5FF002805D01F491D4848600F
:10B47000C8131E4988611E48018CC9B201290BD12D
:10B48000828C120708D1028D1206120F042A03D1F2
:10B49000828D1206120F0AD0012921D1818C090751
:10B4A0001ED1018D0906090F0A2904D007E0114AAF
:10B4B00001219160F5E7828D1206120F05D00D294A
:10B4C0000ED1808D0006000F0AD10B4801680129BA
:10B4D00004D00A49016001680129FCD1C021416101
:10B4E00010BD0000DFFF07C000050040006C0040F9
:10B4F000C00F00F00006004000EC0640759300000D
:10B5000010B504F0B3FB10BD0C4B5861D9600B496A
:10B510000F2080390860094900204031C8625A6212
:10B520000421196006498860C861486204494031B5
:10B530004860044901200860886070470025004089
:10B54000002100400020004030B47446641E25787D
:10B55000641CAB4200D21D46635D5B00E31830BC47
:10B56000184702E008C8121F08C1002AFAD1704724
:10B570007047002001E001C1121F002AFBD1704773
:10B58000F7B584B00025168807461580406B144631
:10B59000002813D003780598032E51D3022101709F
:10B5A00021881122491C89B2218042542188491CDA
:10B5B00089B2218043542088401C2080386B0028A9
:10B5C0001DD005462088059902461232B24237D86E
:10B5D00011220A5420881022401C80B220800A5474
:10B5E0002088401C20800F202A5C2388401ECA54DB
:10B5F000228840B2521C22800028F5DA0025384605
:10B6000020300290807B002806D0334622460599E0
:10B6100002F01AFF050014D10298407B002806D0E2
:10B6200032462146059800F0DFFE050009D1B878C2
:10B63000002823D0059886462088001DB04202D9F4
:10B640000C2007B0F0BD684679DF0028F9D12188C9
:10B6500003207246505420881921401C80B220805B
:10B66000115420887146401C80B2208041186846E1
:10B67000008804F08FFB218840182080F87800288B
:10B6800017D0218803230A46FB56C91C0598B142EE
:10B69000D6D80221815421880122491C89B22180F7
:10B6A00042542188491C89B2218043542088401C7F
:10B6B00020807868002817D021880023C3560A46C6
:10B6C000C91C0598B142BBD80221815421880A22A5
:10B6D000491C89B2218042542188491C89B22180A9
:10B6E00043542088401C2080388900280AD00094C8
:10B6F00038460196062202210830059B04F0CDFB56
:10B7000005009ED1388A00280AD000943846019658
:10B71000072203211030059B04F0BFFB050090D1E8
:10B72000388B00280AD0009438460196152214213F
:10B730001830059B04F0B1FB050082D1386A00285F
:10B7400006D033462246059901F0F4FC0500D8D115
:10B75000786A002806D033462246059903F040F85F
:10B760000500CED10298007B002807D03346224640
:10B770003846059903F021FF0500C2D1387800282A
:10B7800007D0334622463846059903F05DF8050098
:10B79000B7D1284655E710B501220221002001F05B
:10B7A00043F9002801D0072812D1072202210120E5
:10B7B00001F03AF9002801D0072809D100210A2216
:10B7C000084601F031F9002801D0072800D10020F7
:10B7D00010BD000004484268012149050B4693430F
:10B7E00083600A40C26070470005005070B50024B5
:10B7F000064D06E06968E000085C012103F0AAF844
:10B80000641C28788442F5D3002070BD9C21002060
:10B81000F8B515460C460646052A01D20720F8BDA4
:10B8200003F06EF9002803D103F040F90028F6D1A7
:10B83000104900204E600C70C8608D6008610E4D8C
:10B840000DE0E00069688019009181786A465170C6
:10B8500000780A4A694603F0CDF80028DFD1204677
:10B86000641EE4B20028ECD1054A0021024800F031
:10B870004FF8F8BD9C2100203800020055E201007D
:10B8800071D60100BFF34F8F04490348C860BFF36E
:10B890004F8F00BFFDE700000400FA0500ED00E057
:10B8A0000EB50021029000916A4601910148FFF710
:10B8B000E9FF0EBD01400000014B1B681847000066
:10B8C000A427002038B50C46A2680C235A43064B27
:10B8D00009789D58054A126A0092024620460830AF
:10B8E0002369A84738BD0000F828002078210020EF
:10B8F00010B5064914230A785A435118091DFFF759
:10B90000E1FF042003F040FF10BD00002C280020C0
:10B91000094B9B68002B07D0002A07D0002805D0D0
:10B920000068037C002B03D0082070470720704775
:10B930004174426100207047B0210020FFB590079C
:10B94000002581B014460E46002832D11B4F002C32
:10B9500031D003F0EBFC0498786103203870334653
:10B960001821224600204B43BC601834C1008918BE
:10B970000D704D708E704C601C19401C0328F5DB57
:10B98000FD607D7001240E48BD7024050460032114
:10B990001420FFF71FFD0B4804600B4C0198A060BA
:10B9A00003211120FFF716FD60683861002005B003
:10B9B000F0BD0720FBE7BD60FBE70000B0210020E1
:10B9C00080E200E000E100E000150140FEB50D4618
:10B9D0001B4917468968044600292AD0002C28D024
:10B9E000052D01D20720FEBD6069002821D0607CB2
:10B9F000012820D0002604F013FAC000104901905D
:10BA000089684018694604F035FA002815D00121EC
:10BA100001700C49446049680830E2C00849019847
:10BA20008968411868460078487004F091F8002051
:10BA3000FEBD0820FEBD2E46DDE70420FEBD000051
:10BA4000B021002000150140F8B5134D0446A96847
:10BA500000291CD0002C1AD06069002817D00026BD
:10BA6000267404F0DDF9C700A8686946381804F0A8
:10BA700001FA00280DD0022101704460A86839182D
:10BA800068460078487004F063F83046F8BD082036
:10BA9000F8BD0420F8BD0000B0210020F0B5054637
:10BAA000007D002493B00E4600280DD001200146F1
:10BAB0006846103103940173717B4173817BF920D7
:10BAC00001406846891C81731C2104A8FFF771FBA3
:10BAD0006946087C02210843694608742A7DEF21E3
:10BAE000002A02D01022104300E008406A46107479
:10BAF000059407940894287D002800D003A8099095
:10BB000001270A9410469771304A82800094B27BD4
:10BB10000270F27B42708078F9221040F722801C7C
:10BB20001040EF2108404108490068468170317B90
:10BB3000017214210BA8FFF73CFB01A80B9068468B
:10BB40000C908786C486078702A80F90A888AB1D33
:10BB50000BAA04A9A2DF002835D1B068002830D094
:10BB6000684687711A4981800094317C01700020F9
:10BB70000146684641708078F9210840F721801C11
:10BB80000840EF210840410849006846817011A82B
:10BB9000B16800F0ECFD064614210BA8FFF709FB85
:10BBA00001A80B9068460C908686C486068711A86B
:10BBB0000F902A46E8880E320BA9A3DF002802D195
:10BBC00000E0EC81002013B0F0BD0000192A000055
:10BBD0000829000010B50B490B4803F0E1FCC1B285
:10BBE0000848803800F05CFA002809D0082807D0FF
:10BBF0000649884204D00649884201D0FFF750FE2A
:10BC000010BD0000C024002090200020043000005F
:10BC100001340000F0B50C4693B01F216A46118034
:10BC2000072600279180002809D0C17849070DD543
:10BC300002A9FFF7A5FC002809D102AD01E000250B
:10BC40001780002C0ED0E078002802D0304613B0C8
:10BC5000F0BD01AA0AA92046FFF792FC0028F6D100
:10BC60000AAA02E068460022878068468088C3B23C
:10BC700068460088C1B2284672DFE8E770B50D4615
:10BC800004991646040042D0002E40D042480022BB
:10BC90004271C3600161242231464048FFF770FAC7
:10BCA00000F0D4F83D4934310846103801602031A5
:10BCB000816038215C38FFF77CFA384821783838C1
:10BCC0000170A1788170E178C1706178417062691A
:10BCD000216942610161E268A168C2608160014638
:10BCE000E369A269CB618A61616A002919D00146C2
:10BCF000AC310246B83241628A60636A1B880B80AD
:10BD0000616A436A898899800021436A06E00E20AF
:10BD100070BD666AB668765C5654491C9E888E4231
:10BD2000F7D8A16A00291CD01C4AAC3211460C3944
:10BD30008A608162A36A9B888B80A16A836A098872
:10BD400019800021836A04E0A66AB668765C5654BE
:10BD5000491C9E888E42F7D82C210A5D0F4918395C
:10BD60000A73216A002909D00B4914310162226A41
:10BD700052884A80216A026A098811806168002914
:10BD800004D00549891D4160616841600348294626
:10BD90003838FFF73FFF70BDE020002094250020D9
:10BDA00010B502881C4C102A17D00021112A1AD075
:10BDB0001B2A11D1007A00280ED1607901281ED0EB
:10BDC000022822D0032822D0042805D12171E2685C
:10BDD0000846002A00D0904710BD817D0129FBD183
:10BDE0008088208110BD6170808821898842F9D1C6
:10BDF000012005E021690029F4D0884710BD022008
:10BE000000F058F80028F5D110BD0320F8E7032012
:10BE100020710420F4E70000E020002010B5022883
:10BE200001D003280ED1084C207800280AD0002029
:10BE30002070607900F03EF8002803D021690029C5
:10BE400000D0884710BD0000E020002010B5072179
:10BE50000148FFF7AEF910BDF820002010B51348D7
:10BE6000007801281FD1124C607800281BD160791E
:10BE7000002802D074DF002816D101200B49607021
:10BE800006203839C870094800213838FFF7C2FE4B
:10BE9000002809D1607900F00DF8002803D021694D
:10BEA000002900D08847002010BD00009425002004
:10BEB000E0200020F0B5784C87B06071002606A81D
:10BEC000069602F0FDFF0127082802D0002808D1BD
:10BED00004E006A802F0AEF8002804D10698002875
:10BEE00001D02770D4E0FFF7B1FF6C4D68780028CF
:10BEF00002D06079012807D0A87800280CD060799A
:10BF0000012801D0022824D1E168002903D0E7707C
:10BF10000820884700E0E6706079012808D1687839
:10BF2000002809D05C48193002F06EFF002803D0C9
:10BF30006079022802D00CE002206071A878002805
:10BF400005D05548193002F05FFF002801D10320C9
:10BF50006071287B002804D16079032801D1042076
:10BF60006071287E002804D16079042801D16671AF
:10BF70002671E16800290AD06079032801D00428DD
:10BF800005D12878002802D06078002817D0A67044
:10BF900018216846FFF70DF968460670019606728B
:10BFA0000396607901280ED0022815D03B4E243626
:10BFB00037465C3F03281BD004285DD13AE0A770C8
:10BFC00007208847E4E73448183001906846077036
:10BFD00046820682277152E02F4818300190684649
:10BFE000077029894182A98801820220207146E0D8
:10BFF000A88A69464882288A08822848243003F0A3
:10C00000BBFF002805D02878002802D060780028DF
:10C0100001D003202FE00220694608720420039615
:10C02000F8701E4800213838FFF7F4FD002830D1A1
:10C03000052020E0A88B69460882288C4882174892
:10C04000243003F099FF002805D02878002802D07A
:10C050006078002801D004200DE0022069460872B3
:10C0600004200396F8700D4800213838FFF7D2FD00
:10C0700000280ED1062020716079002803D0684680
:10C0800073DF002805D1E168002901D020798847B5
:10C09000002007B0F0BD0000E02000209425002023
:10C0A00073B586B004002FD06A46217C127F002031
:10C0B000914227D0002501266846009506804580DC
:10C0C00007A80190E188608A6A46A4DF002819D198
:10C0D0006846007F2074608A0D49884216D0207D12
:10C0E000002813D00295039504950595E1886846CC
:10C0F0000181867241888181049001980590608A4F
:10C1000002A9A6DF08B070BD0E20FBE70820F9E702
:10C11000FFFF000038B50D4604001AD0002D18D0DE
:10C12000286820600020C043608228792075FF20A5
:10C13000207401216846817007490180221D6946EB
:10C140000120A0DF002803D129462046FFF7A6FCE6
:10C1500038BD0E2038BD00000F18000038B500288B
:10C1600024D0002922D00A88102A1AD0112A1AD0E5
:10C17000502A1BD1027D002A18D0CA884389891D04
:10C180009A4213D14A89022A10D10268002A0DD09E
:10C190004B7B0C7B19022143C907C90F07D0002133
:10C1A00006E0898801E00021C943418238BD0121B0
:10C1B0006B4619706946904738BD000070B505465A
:10C1C00001461C220E48FEF7DBFF0E4C00262670AF
:10C1D0002968002906D00822201DFEF7D1FF201D66
:10C1E0007ADF02E00748001D7BDF002807D1401EF0
:10C1F00060806670044A00210448FFF789FB70BD27
:10C200008026002000210020BDFD0100D0FF01009C
:10C21000F8B5214C028800271E4DE689102A15D05A
:10C220001E49112A21D0122A2DD0502A1CD1C28891
:10C23000801DB24218D14289022A15D1427B037B6C
:10C2400010021843C007C00F0CD112E0818869802A
:10C2500001461048082218310C30FEF791FF6F702C
:10C26000002E01D100F0AEFFF8BD0020C043688071
:10C270006F700868FFF7E8FB0028F5D0A169002976
:10C28000F2D08847F8BD0822811802480C30FEF72A
:10C2900077FFE7E70021002080260020D0FF010083
:10C2A00030B5054687B0086828600020C043E883A1
:10C2B00088890C4628840121684681761C490183BF
:10C2C0002A1D06A90120A0DF00282ED121462846DC
:10C2D00001F04AF8002828D12146284600F0D0FF76
:10C2E000002822D1206A002805D02146284601F0E6
:10C2F000C1F8002819D1E0690590217E68460174D3
:10C30000A17BC17020690290606903900322E11D46
:10C310006846FEF735FFE98A68464182A988818030
:10C3200028466946243000F04BF907B030BD0000C4
:10C330001618000030B50446C08B134A8BB09042EB
:10C340001FD006AA204601F061F86946054608801C
:10C3500000200190029003900490E2888A800122DC
:10C360008A71088106A803910490E08B01A9A6DFD9
:10C37000002804D169460988A94200D00C200BB0DE
:10C3800030BD0820FBE70000FFFF000038B5044681
:10C390000D46243000F07EF92888102818D0112886
:10C3A00018D0502819D1E9886289AD1D20469142E4
:10C3B00013D16989022910D10268002A0DD0697B46
:10C3C0002B7B09021943C907C90F07D0002106E0DA
:10C3D000A88801E00020C043E08338BD01216B46FE
:10C3E00019706946904738BD7CB5054608880C46EB
:10C3F0000930904201D90C207CBD684671DF0028CD
:10C40000FAD121880820685420881B21401C80B262
:10C4100020802954208800A9401C80B22080401927
:10C4200006220131FEF7ACFE20886946801D80B2ED
:10C4300020800978002900D0012129542088401C3F
:10C44000208000207CBD00007FB5044601216846A5
:10C4500081714A4981804A4A01A90120A0DF002850
:10C460007ED1228825463C35002A09D044482B46F7
:10C47000801C00904348616800F0B8FC00287BD124
:10C480002289002A0AD03E482B460A3000903D48B7
:10C49000E168401F00F0AAFC00286DD1228A002A22
:10C4A0000AD037482B461230009036486169001F89
:10C4B00000F09CFC00285FD1228B002A0AD0304873
:10C4C0002B461A3000902F48E169801E00F08EFC48
:10C4D000002851D1228C002A0AD029482B4622302C
:10C4E00000902848616AC01E00F080FC002843D1FB
:10C4F000228D002A0AD022482B462A30009021485B
:10C50000E16A401E00F072FC002835D1216B002941
:10C510000ED002A803F0A4FA19482B46323000903E
:10C520001848082202A9801F00F060FC002823D1CF
:10C53000606B00280BD012492B463A3100910279EA
:10C5400001681048401C00F051FC002814D1A16B78
:10C55000002910D002A802F097FC0948423000E000
:10C560000AE0009007482B46072202A9273000F076
:10C570003DFC002800D1002004B070BD0A18000066
:10C5800014210020292A000010B5044601F098F972
:10C5900021460A48FFF7FAFE084821461838FFF7F7
:10C5A000DDFD2046FFF734FE204600F075F92046F9
:10C5B00002F0F8FA2046FFF7F3FB10BD58240020E4
:10C5C000F0B5044600208FB0C043A081002626208D
:10C5D00006550A7C2277087C0D46002806D0E968BB
:10C5E000002903D020460E30FEF7CAFDA8886080DF
:10C5F000A8682062E8782070688AA0846869A062D0
:10C600000120014608A81031089601702978417070
:10C610008178F9273940891C81701C2101A8FEF717
:10C62000C8FD6846017928200143684601710296D9
:10C6300008A804960596012207960690827114496F
:10C640006846818400200146684600960170A978FA
:10C6500041708178F7203940891C01401020014346
:10C6600011436846817014210AA8FEF7A2FD09A8AB
:10C670000A9068460B9006861321468681860E96A0
:10C680006088231D0AAA01A9A2DF0FB0F0BD000037
:10C69000552A000010B50C88024600232032112CC8
:10C6A00013D005DC012C28D0102C0DD189880EE088
:10C6B000512C0ED0532C07D1C9888088814203D1D8
:10C6C0009079032800D1937110BD0021C943818165
:10C6D000F9E70A1D891D0B78022BF5D1927A042AFD
:10C6E000F2D0062AF0D0052AEED04A8883889A42F2
:10C6F000EAD1891C02F0A2FA10BD91790229FBD17E
:10C7000002F070FE10BDF0B5054604462035A8794C
:10C710008FB0012802D008200FB0F0BD68464174E8
:10C720000227077408AA04A9204600F049FF014621
:10C730006846818600260096019602960396A18897
:10C740000180877086800DA8029008A80390A089B8
:10C750006946A6DF0028DFD1AE71DDE770B504467B
:10C760000D460846FEF730FD2080656070BD0A78F2
:10C7700002704978417002207047000000B51A48E5
:10C7800087B08068059000234822184905A803F067
:10C790004BF8002801D0FFF783F86A4601210020FA
:10C7A00003F02AF8002801D0FFF77AF8104802F0C9
:10C7B0004FFE002801D0FFF773F8684603F012F827
:10C7C000002801D0FFF76CF80A4803F001F80028B0
:10C7D00001D0FFF765F8084803F040F8002801D0C1
:10C7E000FFF75EF807B000BD88FF0100F8230020C6
:10C7F000E81F002089C5010051FA01001CB504465C
:10C8000081786A460C4802F06FFB002812D16078EC
:10C810001C21484309491C2340181A46694602F066
:10C820001DFC064806494430807A80000A5821469B
:10C83000684690471CBD0000702100206027002042
:10C84000F0FF01007CB5134E00250C463060002936
:10C8500018D06946002000F0B5F8002819D101A9C8
:10C86000012000F0AFF8002813D1684601790020BC
:10C87000002901D0022004E069460978002900D08F
:10C880000B2020707068002802D1FEF784FF054657
:10C8900028467CBDD820002010B51C4C018860685B
:10C8A00010290DD011290AD1401E606007D1FEF772
:10C8B00072FF002803D02168002900D0884710BDEE
:10C8C00000281ED100210122084600F0ADF8002802
:10C8D00001D0072811D107220221012000F0A4F87D
:10C8E000002801D0072808D104220221002000F0EE
:10C8F0009BF8002805D0072803D02168002900D024
:10C9000088476068401C606010BD0000D82000208F
:10C9100010B5032000F00CFA002801D0062800D141
:10C92000002010BDF8B507460024234802E0641C2F
:10C93000042C1AD2A2008258BA42F8D1042C14D284
:10C940001D481E4E0C38002929D001290ED002297D
:10C950000BD16000201880194578002D05D01848AB
:10C960000169002901D028468847F8BD6100611897
:10C97000755C8E19717800290CD011490A2249681A
:10C98000806851430E4A521CFFF720F8002801D15D
:10C990000B4847700A48B17814300155DDE78068CC
:10C9A000FFF752F806486100611814308919005DDC
:10C9B0008D78A842D1D0F8BDA0FF0100302500201D
:10C9C000C020002004280CD2074A1269074B8000BF
:10C9D0001B5C01209840904300D00120087000208B
:10C9E00070470020FAE7000000050050A0FF01009A
:10C9F00010B5042806D007280ED00A2801D102F06D
:10CA0000AFFE10BD07481321408876DF06E00028FE
:10CA1000F7D0FEF745FF10BDFFF720FA0828F6D142
:10CA200010BD00008020002070B50023042811D222
:10CA3000440004190D4D012A02D101290DD0002214
:10CA400046008019094E801900290CD0012906D012
:10CA5000022906D00723184670BD0D30C2B22A55F0
:10CA6000F9E74270F7E78270F5E700003025002013
:10CA700010B5054A0146127A0020D20702D00846B6
:10CA800000F054F810BD0000C020002070B50E4624
:10CA9000204905464E608D6000200A61A9071ED519
:10CAA0000024012211462046FFF7BEFF641C042C1F
:10CAB00002D20028F5D012E0002810D1720804211B
:10CAC0001548FEF7A5FE002809D1FEF78FFE0028C5
:10CAD00005D11148114A00211438FEF719FFE90762
:10CAE00006D00B220E4992048A600023CB608A6133
:10CAF00000280DD108480B4A00211C38FEF708FF1A
:10CB0000002805D10448084A01211838FEF700FF23
:10CB100070BD0000C0200020B0FF01006DCD0100FD
:10CB2000000500509DE40100D5B70100FEB57C4D25
:10CB30000322E96892048A430191696806468B00E2
:10CB400000910020C9180746764C3300FEF7FCFC24
:10CB5000180D15153849586B8183958C95E4A1A162
:10CB6000A1A1A1CAD0D6DDE4E4140B21019A890465
:10CB70009143A160E7602F70FEBDA260E76060682E
:10CB80000B21890448408002674809D5A060E7600E
:10CB9000022E02D1E120C0000AE07D20400107E022
:10CBA000E060A760022E01D1C82001E0FF20913093
:10CBB0002E706421FEF7BAFA00994143002243E047
:10CBC000A260E76060680B218904484080025648F3
:10CBD00004D5A060E76019204001E9E7E060A760A4
:10CBE000E2E7A260E76060680B21890448408002A8
:10CBF0004D4802D5A060E760CFE7E060A760D5E7C9
:10CC0000A260E76060680B218904484080024648C2
:10CC100002D5A060E76001E0E060A7602E70009898
:10CC20004100002210E0A260E76060680B218904E7
:10CC3000484080023C4802D5A060E76001E0E06027
:10CC4000A7602E700099002238480068FEF7BEFEEB
:10CC5000FEBDA2604FE060680121C9040A4682431C
:10CC6000A2600840E060EDE761680120C004024670
:10CC70008A43A2600140E160E4E760680122D204D7
:10CC800013468343A3601040E060CAE7E160A760F9
:10CC90002CE026484068FEF7D7FE11218A1B01D000
:10CCA000002807D00B22E96892041140A160E760D8
:10CCB000EF60FEBD1C49E960012A0CD91046C8216D
:10CCC00048436421FEF732FA69680022414317485D
:10CCD0004068FEF77BFE0B22E96892041140E16098
:10CCE000A760FEBD0B218904A160E7602E70FEBD28
:10CCF00003218904A160E7600B49C7E70921890482
:10CD0000A160E7600121C904C0E701218904A16095
:10CD1000E7600521C904B9E70B218904B6E70000E3
:10CD2000C0200020000500500000200094FF0100FA
:10CD3000F0B500210B4C0C4D03273F048A00A2588C
:10CD400092005619326801238B40034000D0032320
:10CD5000BA431B0413433360491C0429EED300205B
:10CD6000F0BD0000A0FF01000007005010B50078E2
:10CD70000221FFF7D7FD10BD0022D24383000449F2
:10CD80000428CA5002D308182030027770470000E8
:10CD9000C8270020F0B50025ED43002A02D000236B
:10CDA000042601E0042308260B4C04E09F00E75909
:10CDB0007F1C04D05B1CB342F8D32846F0BD261874
:10CDC0005DB2203635709E00A151002AF5D1E118E0
:10CDD00020310877F1E70000C82700200249091830
:10CDE0002020085670470000C8270020FFB58FB0EC
:10CDF0001E4615460F0002D10020FEF751FD002D02
:10CE000002D10020FEF74CFD1C216846FEF7D1F947
:10CE100068460178022001436846017000240194AD
:10CE2000039404940594012108A80694817068462F
:10CE30000F99018407943178017771784177807F69
:10CE4000F9210840F721801C0840EF2108404108E3
:10CE5000490068468177142109A8FEF7AAF908A8B5
:10CE6000099007A80A9068468585C4850586044808
:10CE70000D9709AA69460088189BA2DF13B0F0BD80
:10CE800014210020F8B53E481422017851430C18B3
:10CE9000E0680C2148433A492769CC31401805899C
:10CEA00041890091241D466802F0ACF801463846DD
:10CEB000FEF73CF9002932D000200099A2884D43AA
:10CEC0006188AE198918CD1900222E4900280A61FF
:10CED00009D002F097F86188884222D0B54202D189
:10CEE000A08800281DD0A06802281AD002F08AF875
:10CEF000A188CA1901461046FEF718F9214C880886
:10CF0000E06002F07FF801462846FEF70FF900299D
:10CF100011D00020B5422FD000280ED02CE00120E7
:10CF2000CBE702F06FF801463846FEF7FFF81549E7
:10CF30004861032021E00120ECE7ADB2B7B202F076
:10CF400061F801463846FEF7F1F8064602F05AF855
:10CF500001462846FEF7EAF8864201D1781B09E02F
:10CF600002F050F8064602F04DF801462846FEF75A
:10CF7000DDF8701A80082061022002F005FCF8BD7F
:10CF80002C2800207821002010B5074814220178B1
:10CF9000514308180079042802D000F059F810BD58
:10CFA000012002F0F1FB10BD2C28002010B50B4829
:10CFB0001422017851430818094AC1881162007986
:10CFC000012806D0032801D0042801D1FFF75AFF19
:10CFD00010BD012002F0D8FB10BD00002C2800205D
:10CFE0007821002014225043054A00218018017145
:10CFF000C18001220161C26041610181704700006E
:10D000002C280020F8B5104C069E65780A2D19D002
:10D0100027787D190A2D00D30A3D14277D432D1949
:10D0200028716A6103C92961E860EB802E8160780C
:10D03000401C607005480078002801D1FFF7B6FF5A
:10D040000020F8BD0420F8BD2C2800207821002005
:10D0500010B50D4C14212078484301190020091DFA
:10D06000FEF730FC2078FFF7BDFF6078401E60704F
:10D070002078401CC0B220700A2801D10020207006
:10D08000002002F081FB10BD2C280020F8B52348B9
:10D09000C16800293ED00E6821494C680769C078F4
:10D0A000E11B0D022D0AED1C002814D101201D4AA0
:10D0B000000450601B4A403A50601B494000086021
:10D0C0001A4908601A49012008602F20FEF702F86B
:10D0D00012490120C870B54200D23546E819000255
:10D0E0000F4B000A403318600D4A5168001B091BA2
:10D0F0000902090A0002000AC91C814209D95068C4
:10D1000018602F20FDF7E6FF012007494004803911
:10D110000860F8BD02F00AF9F8BD0000B021002057
:10D12000001501404013014080E200E000E100E012
:10D1300000100140F8B50646108814468446801D4C
:10D140000D46984201D90C20F8BD32880720062AE6
:10D15000FAD31927FF01184BBA4201D99A42F3D1E9
:10D1600071880629F0D3B94201D99942ECD19A428B
:10D1700003D0994201D08A42E6D80521604629545D
:10D1800020881221401C80B2208029542088401C15
:10D1900080B220804119308802F0FCFD21884018BF
:10D1A00080B220804119708802F0F4FD2188401877
:10D1B00020800020F8BD0000FFFF000010B5FEF742
:10D1C0006FFB10BDF8B5164801F0E4F8144D0026C9
:10D1D0000C3D144C002807D0616900291CD00120A7
:10D1E0006A461070684616E02878002805D0616904
:10D1F000002911D0684606700DE0687800280DD02F
:10D20000A168094800220068FEF7E0FB002803D06F
:10D21000A169002900D088472E70F8BD6168F0E749
:10D220000C21002080260020D0FF010070B5094BA2
:10D2300004469E7A082000250E4207D00648844204
:10D2400002D01889A04202D10020156070BD0520CF
:10D2500070BD000098270020FFFF00000C2148430C
:10D26000064910B5012240188272911E0181FF21EA
:10D27000C1720721FDF79DFF10BD00009827002017
:10D2800070B590B00E4605461C216846FDF791FF2B
:10D290006A46107802210843107000240194039418
:10D2A00004940594012008AA0694907015486A46D3
:10D2B00010840794B07A10775477907FF921084052
:10D2C000F721801C0840EF2108404008400090777B
:10D2D000142109A8FDF76DFFB0890EA902F05FFDCA
:10D2E00008A9099107A90A916A469085D4851086F4
:10D2F0000EA80D902B46A8880E3309AA6946A2DF16
:10D3000010B070BD5C2A00007FB5684600F000F9DF
:10D3100069461148FFF70EF8104C002808D008287D
:10D3200006D0A04204D00E49884201D0FEF7B8FAD8
:10D330000C4D687800280ED0074801212430FFF7F3
:10D34000E2F9002805D0082803D0A04203D0FEF758
:10D35000A7FA002068707FBD582400200430000028
:10D36000013400008020002070B500240546601CB8
:10D3700098B00007000F08AA10300D9410750879B6
:10D380005075907DF9263040801C90751C2106A8B0
:10D39000FDF70FFF6A46107E1021084310760DA896
:10D3A00007940B9009940A94012108AA0C94917691
:10D3B00015486A4610870020059410755075907DB9
:10D3C000F7223040801C1040EF22104008436A468C
:10D3D000907514216846FDF7ECFE0EA8009005A894
:10D3E00001900FAA14A9284600F010F86A4610818F
:10D3F0001420548190810FA80490A888AB1D06A921
:10D40000A2DF18B070BD00005B2A0000F7B50098DD
:10D410000026008C012714460D46C00711D028783D
:10D4200000280ED0696861700A0AA2700A0CE270C6
:10D43000090E21710126611D288902F0B0FC401DF2
:10D44000C7B20098008C800710D5687800280DD0EE
:10D4500002200643E119688902F0A1FCC019C7B295
:10D46000E119A88902F09BFCC019C7B226703846A2
:10D47000FEBD000070B590B00D4606461C21684602
:10D48000FDF797FE68460178022001436846017067
:10D4900000240194039404940594012108A806949F
:10D4A00081701A496846018425200794415D6846C9
:10D4B00001770020014668464177827FF9200240CB
:10D4C000F720921C0240EF200240510849006846B4
:10D4D000817714210AA8FDF76CFE296A0120002932
:10D4E00002D0097808AA117108A90A9107A90B911D
:10D4F000694608864C86888609A80E903346B0880F
:10D5000016330AAAA2DF10B070BD00005D2A000029
:10D51000F8B50127054607702649274802F040F86C
:10D52000FF211731484386B27D20C0007D21704322
:10D53000C900FDF7FBFD204C183C2189401880B242
:10D540001E49FDF7F3FDE2688018E0602181686004
:10D55000701A80023146FDF7FFFDE18840182881EE
:10D56000144920466F701031203002F019F806215E
:10D57000484386B27D213046C9004843FDF7D6FDB9
:10D5800061894018FF2180B26931FDF7CFFDA28883
:10D590008018A08061816881701A80023146FDF791
:10D5A000DBFD0146E0880918A981B9024018E08036
:10D5B000F8BD0000D024002098200020340800008E
:10D5C00010B503461020107008785070487890709D
:10D5D0004C780320012C0CD10978042909D10021B1
:10D5E00004E05C18A47B1454401C491C1C7F8C4232
:10D5F000F7DC10BD10B5134C207900071FD460690B
:10D60000401C6061E068002801D0042004E000F0C4
:10D61000F3FE002803D0022002F010FA10BD2069AA
:10D62000002809D06068C10701D00320F4E7012178
:10D63000084360600020EFE7FFF7A6FC10BD02F092
:10D64000F1F910BD7821002010B5084841680A079B
:10D6500008D48A0702D5012211434160022002F05A
:10D66000EDF910BD02F0DEF910BD000078210020B8
:10D67000F8B500260124154D23E06968F00047182D
:10D68000387821462A698140114218D08A432A619C
:10D6900001F002FA3A782146EB68914019400346BE
:10D6A000934099420BD17978012901D0012100E002
:10D6B00000217B684140002B01D010469847761C22
:10D6C000F6B228788642D8D3F8BD00009C2100200D
:10D6D000FEB50E46044681786A46234801F004FCF4
:10D6E000002827D160780C21204F4843C019807A48
:10D6F000400620D4022E1ED0012E1ED01C4DA07834
:10D700001C21484319490023FC3941181C22684652
:10D71000A847002813D0022E0CD020780C214843B3
:10D7200012490C314018807A124980000A5821466B
:10D7300068469047FEBD104DE1E7104DDFE7022E31
:10D74000F8D060780C214843C019817ABF2211407B
:10D75000817260781C2148430449383941181C23E0
:10D760001A466846A847D8E770210020982700206D
:10D77000A9F90100E0FF01009DF20100C1F10100E3
:10D7800070B50546114A124800241C2363431B1838
:10D790009B7EFF2B04D0641C072CF6D3104670BD73
:10D7A0000A78022A09D01C2262431018FD228276D0
:10D7B00007221030FDF7E4FC04E01C216143081847
:10D7C000FE2181762C700022E8E7000043800000F3
:10D7D0009C260020F7B505250F4F06460024002E95
:10D7E0000AD01C206043C019072231461030FDF7D3
:10D7F000F2FC002807D00AE01C206043C019018B0E
:10D800000298814203D101980025046002E0641C63
:10D81000072CE4D32846FEBD9C2600207CB5054697
:10D8200081B26A46074801F05FFB040008D1582125
:10D83000684601F083FB040002D1284601F0F0FAAB
:10D8400020467CBD7021002010B5100001D0FEF7ED
:10D8500027F8002010BD00001FB56946087301F0CD
:10D86000D7FB002801D0FEF71BF803A800F01AFA36
:10D87000002801D0FEF714F801A805210130FDF7BA
:10D8800098FC6946497901200143812211403031D9
:10D890004A06520E69464A7107228A711022CA71DD
:10D8A0000549009169460871044800F00FFB002803
:10D8B00001D0FDF7F5FF1FBD49D8010080200020F1
:10D8C000F0B591B00546FF24002007940290E94886
:10D8D0000078002849D0E84F3868002845D001A8D2
:10D8E00000F0D2F9002801D0FDF7DAFF281D0590DD
:10D8F0002C2069460883FF20002688710E7103964C
:10D90000DD4C28880C3C10280ED0A88803AA0221E0
:10D91000FFF78CFC002807D103980C21414309191B
:10D92000CA7A69468A7148712A881320192A7DD0DB
:10D930000FDC102A1BD0112A55D0132A77D0142AB5
:10D9400013D103980C2148430019C07AFF286FD0E7
:10D95000A1E0CA491A2A6CD01E2A65D0522A04D1E5
:10D96000B87A8000095801A8884711B0F0BDC44FAB
:10D9700003AA01213846FFF759FC0028F5D1039985
:10D980000C20484302220019827211236A46137444
:10D990005171A98801812946083107220091FDF7BC
:10D9A000EFFBE87DC10707D04108B2480830405C72
:10D9B000FF2808D0079006E03A4607A90098FFF72D
:10D9C00009FF002837D103990C2251430919079800
:10D9D000C8728A7A08231A438A726946887101A834
:10D9E000FEF70CFF27E003980C2148430119887AC1
:10D9F000FD2210408872010706D5C0090DD0002114
:10DA000001A8FFF765FE08E068468079FF2804D08A
:10DA100001F006FAFF206946887103980C225043F2
:10DA20001021001981721220694603E08BE043E067
:10DA300014E0E4E00874324604A901A8FDF73CFFB5
:10DA40006846007C122890D103980C2141430919A3
:10DA5000897A012989D0FFF701FC86E72A8A07A97C
:10DA60000020FFF7B7FE00280ED103990C22514386
:10DA700009190798C8728A7A08231A438A72694674
:10DA8000887101A8FEF7BAFE03980C2148430019DB
:10DA9000C07AFF2806D003981C21484376494439B0
:10DAA0004018029003981C21484376494218A888E0
:10DAB0000023029986DF58E76946087403980C2111
:10DAC00048430119887A042210438872CA7AFF2ACF
:10DAD0000BD0402210438872162069460874002338
:10DAE000A8881A4685217FDF21E007A8FFF748FEB6
:10DAF00000281FD0064600200D9003990C224A43AF
:10DB00001219D27A1C235A435E4B0F90D2180E92F0
:10DB10001C2251431A46C4328918109009910A9068
:10DB20000B900C903A1DA88809AB00217FDF0028DC
:10DB300093D180E769460798887103990C22514375
:10DB40000919C872D7E7787A0C214008400078722A
:10DB500003986F4602464843011984468B7AFB209E
:10DB600003408B7214203874287A002806D0580697
:10DB7000DFD4C87AFFF752FE2E7A5CE7687A400756
:10DB8000D7D5B879FF28D4D008273B438B726B7B5D
:10DB90009B0708D51C2503466B433A4D5B199D7EB8
:10DBA0006D086D009D76CB7AFF2BC2D06346E35C97
:10DBB000022B10D01C225043324D07224019103046
:10DBC000FDF7DEFA684680791C2148434019817EC2
:10DBD000FD2211400DE01C214A43274944395118C8
:10DBE0004A8A1C214843274940180283817E4908FC
:10DBF00049008176012101A8FFF76AFD1BE7287A19
:10DC00000209012A23D10007000F01281FD1039820
:10DC10000C2242431219927A120718D51C2148434C
:10DC200015492839401814210830FDF7C2FA16208A
:10DC30006946087403980C2148430119887A6022C8
:10DC400010438872787A0221084378720FE00398B3
:10DC50000C2250430019827A80231A4382721520C5
:10DC60006A461074B87A8000095801A888470026CF
:10DC7000E1E6000060210020A4270020000002004F
:10DC8000FFFF00009C260020002806D0FF21017025
:10DC900041708170C17000207047014870470000DA
:10DCA0000E800000F0B585B0040036D0294800256C
:10DCB0000560457285722846FFF7D0FA25481C2179
:10DCC0002838FDF776FA0026FF27304601F0A8F83D
:10DCD00021488755761C072EF7D358216846818046
:10DCE0000721C1801D481C4900900831684601F099
:10DCF00009FA00280FD1184E0120083E3070207814
:10DD000000280CD069468888C988484381B23046CB
:10DD1000103001F013F905B0F0BD1148FBE7114FC9
:10DD200000240D48A1B202AA083001F0DDF8002855
:10DD300009D11C206043C01900231C2202A901F054
:10DD40008DF9002801D03570E5E7641C072CE8D375
:10DD5000E1E70000A42700206821002069DD010020
:10DD60000E8000009C260020FFB5554891B0006849
:10DD70001A9F1E4600286AD0582F68D86846FFF7B9
:10DD800083FF002801D0FDF78BFD00246846047056
:10DD90000471254605970696A9B20FAA494801F0D5
:10DDA000A3F8002806D108220FA91198FDF713FA4D
:10DDB000002819D06D1C072DEED368468078079097
:10DDC000FF2844D012982025032810D03E481C215B
:10DDD000301AFDF7ABF90127072825D204A80290D5
:10DDE0001398002812D019E068468570E5E7582F8F
:10DDF00003D040206946087101E068460571684615
:10DE0000017903200143684601714FE007993846C4
:10DE100088402C4910394968084218D0079801F009
:10DE2000C3FF6846057138E025481C214438301A84
:10DE3000FDF77CF900280CD0214D1C21283D701BDA
:10DE4000FDF774F900281AD040206946087115B012
:10DE5000F0BD04A8029068460571447018480B9400
:10DE60000C300C9050380790684680781C2148434D
:10DE7000154905954018089007A806900DE0302137
:10DE8000684601714470C7700D480C38807A80076D
:10DE900003D428461C21FDF78CF912986946022804
:10DEA00008790BD0022108436946087104A8029042
:10DEB00001A96846139AFDF7FFFCC8E73843F4E769
:10DEC000A4270020702100209C26002070B5064663
:10DED00018480D46007800280ED01749002E0ED0A5
:10DEE000002D0CD02868002809D0144C2168002986
:10DEF00007D011480A3870BD0F48801F70BD084612
:10DF000070BD20600522691D201DFDF739F92879B3
:10DF1000A072207A0221400840000843FB221040F2
:10DF20002072E0790123184308431040E07100207B
:10DF3000307070BD602100200E800000A4270020FA
:10DF400010B50E4900234A788C78A24212D0521C98
:10DF5000D2B24A70022A00D14B704A78074B920025
:10DF600018339A580260086910180002000A086104
:10DF7000012010BD0360002010BD0000B021002072
:10DF800010B5002803D0112802D0FDF7B1FC10BD58
:10DF90000248082241681143416010BD78210020E9
:10DFA00010B51C4C217820464068012906D0022972
:10DFB00029D0032912D1000717D513E0000711D487
:10DFC00015481422017851430818C188A28B891A78
:10DFD0000904090CC18002D001F0E8FC10BDFFF774
:10DFE00037F810BD00F0F0FB10BD6069401C6061A7
:10DFF00000F002FA002803D0207801F0C5FB10BD24
:10E00000FEF7C2FF10BD60780449800008588047C1
:10E0100010BD0000782100202C28002024000200E0
:10E0200010B528DFFFF7ACFF10BD10B529DFFFF7F3
:10E03000A7FF10BD002804D00349496D01600020EE
:10E040007047032070470000242900200EB51120DE
:10E05000694608720A220FA102A87CDF002801D0BD
:10E06000FDF71EFC0E4878DF002801D0FDF718FCF4
:10E070000021FF20913000916A46019110804300F9
:10E0800053809180D08068467ADF002801D0FDF768
:10E0900007FC0EBD4E6F726469635F43534300001B
:10E0A0008504000000207047002070470020704762
:10E0B000F8B5064640781C2104464C4324490C22FE
:10E0C00050436118224A00254B681C328018AE4626
:10E0D0002F469C46002B0CD0827A1346D20908D0DA
:10E0E0005A0606D40D461A4A614689B217590835B0
:10E0F0008E46174C00891C343B4672462946A9DFE0
:10E100000B2819D0002800D01248012F13D17078A5
:10E110000C214843001900890F4AA7DF00280AD0C4
:10E120000E49884212D0082810D0891C88420DD090
:10E1300011280BD00020F8BD70780C214843012332
:10E140000019008972462946A9DFE0E70148F8BDB9
:10E150007C27002041800000FFFF0000023000000B
:10E1600070B50C46014660781C22084D504340199A
:10E17000382300F073FF002807D161781C22514337
:10E1800049194A68521C00D14A6070BD7C270020A2
:10E19000F3B587B00D4614206946888268780C2153
:10E1A00003274843224E3B468019008905AA694649
:10E1B000AADF002838D168781C214843741A001956
:10E1C00069468A8A0830FDF706F80028687807D083
:10E1D0001C2148430119496800290DD0154E0CE057
:10E1E0000C2141438919897A89071DD41C21484390
:10E1F0000019FCF7DEFF17E00F4E27506846828AB1
:10E2000068781C2148430019426068784843001927
:10E2100069460830FCF7B4FF68781C2148430119AF
:10E2200038231C220798B047002009B0F0BD000039
:10E23000982700209DF20100C1F1010010B5FFF701
:10E2400037FF10BD10B5FFF78BFF10BD10B5FFF7FE
:10E250009FFF10BDF8B50746104E0125BD40306840
:10E26000FDF7F2FB00280DD10D4C2069284207D1A3
:10E27000384600F011FC0028E06804D0284303E091
:10E28000A8432061F8BDA843E0602069002228432C
:10E290002061A1683068FDF799FBF8BD38000200E5
:10E2A0009C21002070B51B4C207900072ED41A4801
:10E2B0001422017851430D182E6900F0A3FE014687
:10E2C000E8882A89761E80188019FCF72FFF2169BB
:10E2D0000025002909D06169814206D1E5606068A6
:10E2E00001210843606000200AE000F085F8002862
:10E2F00002D00220E56003E02069002803D003205B
:10E3000001F09CFB70BDFEF73FFE70BD01F08AFB83
:10E3100070BD0000782100202C280020F8B51C4C8E
:10E320002078002833D02069002807D00026E06834
:10E33000002805D00025002E04D011E00126F6E7C4
:10E340000125F8E7684652DF052804D0002804D0EC
:10E35000FDF7A6FA04E0012602E02169009888474B
:10E36000002D10D1608869460880A06861DF05280B
:10E3700004D0002804D0FDF793FA04E0012502E060
:10E38000E168A0688847002EDCD0002DD3D0F8BD0E
:10E39000D0210020418805480288914204D340885A
:10E3A000814201D8012070470020704704210020DD
:10E3B0001048018CC9B2012917D1818C090714D1E9
:10E3C000018D09060A0F03D1828D1206120F0ED09D
:10E3D000090F012903D1828D1206120F07D00329DC
:10E3E00003D1808D0006000F01D00020704701206E
:10E3F00070470000C00F00F070B50E48142201787D
:10E4000051430C18256900F0FDFD0146E088228982
:10E410006D1E80184019FCF789FE07494A6982423F
:10E4200006D3824202D10869002801D0002070BDC5
:10E43000012070BD2C28002078210020800701D009
:10E44000002070470120704730B51588EC1C9C42B5
:10E4500001D90C2030BD02244C5513881C255B1CAF
:10E460009BB21380CD5413885B1C9BB21380012890
:10E4700007D0022807D0032807D0042807D0072098
:10E4800030BD002004E0012002E0CC5401E0032074
:10E49000C8541088401C1080002030BD10B50448BE
:10E4A000017AC90702D00078FEF740FB10BD0000DA
:10E4B000C0200020F8B52C49C8680A690C780F798B
:10E4C00089688646944600913EE00099E20055181E
:10E4D0002A7836E0182353436968521CC918AB7870
:10E4E000D2B2934200D100220B78022B02D0032B30
:10E4F00027D123E04E680346014603E0B14204D031
:10E500000B46C96900291CD0F8E7002919D08B42B5
:10E5100008D1C069002805D1144F0126BE6000262D
:10E52000B44601270E68C969D961002909D00B6872
:10E530009B190B6005E00174C06900E00021002810
:10E54000F9D169789142C5D12146641EE4B200290F
:10E55000BBD1054962460A61C8600F71704501D0A0
:10E560000120F8BD0020F8BDB021002000100140BE
:10E57000F8B5044631480026C168009107784EE09E
:10E580002E48F90080680D1843E0002C02D0204688
:10E59000E4691FE02878182141436A68401CC0B232
:10E5A00051182870AA78904200D12E700A784868D5
:10E5B000012A30D1027C002A2DD18A684260CA68C3
:10E5C00082600A69C260496981611C490979002930
:10E5D00000D04660194943680A699C46991A0902A5
:10E5E000174B090A994202D28268891807E06146EE
:10E5F000511A09028268090A8A4202D9511A016035
:10E6000000E006604660012186600174C66101F089
:10E61000A7FA002CB9D1287869788842BAD138464F
:10E620007F1EFFB20028ABD10448C1680098814228
:10E6300001D00120F8BD0020F8BD0000B02100206D
:10E64000FFFF7F0098B0544A09210B20FCF75CFFC4
:10E650000023524A05211846FDF770F9002801D021
:10E66000FDF71EF94E4A01214E48FDF751F90028E9
:10E6700001D0FDF715F94B484B4A0121001DFDF76C
:10E6800047F9002801D0FDF70BF9484A4849032013
:10E69000FEF7FCF9002801D0FDF702F901A90020DE
:10E6A000FEF7D0F8002801D0FDF7FAF868460079A7
:10E6B00002286FD0002168460170FEF75FF86846B7
:10E6C0000078FFF7C9F8FFF7C1FC382101A8FCF773
:10E6D00070FD022168460171012585710621C17115
:10E6E000032484823348069024210FA8FCF761FD9F
:10E6F00010A80572A02000251390B4200095149056
:10E700002D4B0FAA294601A8FDF7B8FA002801D021
:10E71000FDF7C6F800F098FF00F0E8FE1C216846FF
:10E72000FCF747FD0520C00301900F200004029074
:10E73000009568460473214841896846C181057483
:10E740001F4805901F4806906846FDF737FD0028D2
:10E7500001D0FDF7A5F8134C01210022090420681F
:10E76000FDF734F9002801D0FDF79AF80121C9031B
:10E7700000226068FDF72AF9002801D0FDF790F823
:10E780000320FDF797FB48DF0028FCD0FDF788F851
:10E79000F9E7FFE701218EE700E0D70130220020F2
:10E7A000D5BB010088FF010009D30100F1C90100B8
:10E7B000CD0C0000B220002083EB01005824002083
:10E7C0001DEC0100BDD1010010B5044808224168CC
:10E7D00091434160007800F0D7FF10BD7821002000
:10E7E00070B5144682880E4605462088111D4118D2
:10E7F000921C994201D8FE2A01D90C2070BD521CEE
:10E8000032542088FF21401C80B22080315420885F
:10E81000401C80B220808119288801F0BBFA218831
:10E82000401880B22080AA88002A09D0A96800294F
:10E8300008D08019FCF7A4FC2088A9884018208003
:10E84000002070BD072070BDF8B50F460178144652
:10E850000546012902D16878002806D02088821C4C
:10E860009A422DD8012902D006E00720F8BD697828
:10E870004118891C994223D8181A801E86B268460E
:10E8800006802188B81C081869467DDF0028EDD174
:10E890002878022805D169460988B14201D80921A2
:10E8A0000AE00821012805D16878B04202D86A46FA
:10E8B000108001E06846068068460088FE2801D97D
:10E8C0000C20F8BD2288401CB8542088401C80B21F
:10E8D0002080395420886946401C208009884018CF
:10E8E00020800020F8BD00207047002070470020E5
:10E8F000704700008207D30EFF229A408907090E55
:10E9000010B5994000280BDA03071B0F083B9C0841
:10E910000C4BA400E318DC6994430C43DC6107E072
:10E920008408094BA400E418236893430B43236035
:10E93000C106C90E012088400449086004490860E6
:10E9400010BD000000ED00E000E400E080E200E027
:10E9500000E100E0F3B581B00F46019800F07CFAC9
:10E96000012400281E4E019817D0FEF737FA8019AF
:10E970002030007F8009032802D0012806D007E05C
:10E980001848006901998C40204201D1022100E021
:10E990000321019800F0CEF8FEBD00F069FA0028CE
:10E9A000FAD00198FEF71AFA05468100C81D0E4AF2
:10E9B000F93089180A6980B222430A610B4940186C
:10E9C00000210160002FE7D00198FEF707FA8000D0
:10E9D00030580028E0D00648AC404460FEBD00003E
:10E9E000C82700200005005000650040006000407E
:10E9F00000630040FEB5044623480E46001920215E
:10EA000041560027C8171346401C01D0082738E09C
:10EA1000F27819462046FEF7BDF90546401C2FD076
:10EA2000B078002807D01948A10009180868022208
:10EA30009043086007E000217378204600910A4661
:10EA4000019100F065F8F078002810D01048AA0075
:10EA50001018317802690F4B1A400261E206D20C9D
:10EA60008907890B0A4301690A43026109E00648E4
:10EA7000327840192030017F92011143017700E084
:10EA800004273846FEBD0000C827002000070050BC
:10EA900000650040FFE0FCFF03490969C140C80769
:10EAA000C00F00D0012070470005005070B5124D16
:10EAB0002879002801D0082070BD0F490020403976
:10EAC000421E0B182033401CC0B21A702028F8D305
:10EAD00000242046FEF750F9641CE4B2082CF8D359
:10EAE00003210620FFF706FF01200449C007486004
:10EAF00001202871002070BD08280020006300401C
:10EB000002480079002800D0012070470828002022
:10EB100030B552000A439900039C0A432102049D28
:10EB20000A4329040A43024980004018026030BDAC
:10EB300000070050820006481018026803231B04D7
:10EB40009A430260026809040A43026070470000A9
:10EB500000070050034940180068012800D0002039
:10EB600070470000006000404058002800D001209D
:10EB700070470322120280184068084000D001202C
:10EB8000704710B5002809D0032806D10220FDF7F0
:10EB90006FFF002801D0FCF783FE10BD00F0E0FD00
:10EBA00010BD00007FB504461B4D00886A88102800
:10EBB00023D005DC02281FD10021104667DF17E0B3
:10EBC000112823D0512817D1A179002914D0A07B76
:10EBD000042803D0062801D005280DD1022919D018
:10EBE000012069460870FF20833088801046A8DF26
:10EBF000002801D0FCF754FE7FBD0720FDF738FF49
:10EC0000002801D0FCF74CFEA08801E00020C043A2
:10EC100068807FBD0220E4E78020002010B50078E6
:10EC2000002807D104483B21408876DF002801D026
:10EC3000FCF736FE10BD000080200020F0B5714AC0
:10EC40000D46044607CA93B008AB07C302226946C3
:10EC500000200A74088348830790888201278F75F3
:10EC60000D908A86C8860FA80E902189A0890DAACA
:10EC7000A5DF002803D0A16A002900D08847684694
:10EC8000808F26468007C00F203600282DD0B0790F
:10EC9000002801D0FF20813069468882A08904A91C
:10ECA000A8DF002803D0A16A002900D08847684661
:10ECB000808A002872D10220B07169464870A97A12
:10ECC00028460C300906090E0AD0057808A90D70EF
:10ECD000012D10D0022D19D0032D09D0042D15D0EF
:10ECE00008A80178684601707CE0FF208230D3E7F5
:10ECF000407808720AE0401C0890FCF779FA01029B
:10ED00000898090AC0780006014309916846057011
:10ED1000012D44D0022D52D0032D07D0042D61D1F6
:10ED20002078C0075ED0684647705BE02078C00757
:10ED300058D008A8017A0020227F1DE023189B7B71
:10ED40008B4218D108A8027A0277684647700021E2
:10ED50000D918786C1860FA80E9008A801730274D2
:10ED6000226A002A0CD00BA92046904769464870B9
:10ED7000012805D036E0401C8242DFDC03200AE097
:10ED8000A18CA0890DAAA4DF00282BD0A16A00299C
:10ED900000D0884704206946487023E02FE020789F
:10EDA00080071FD56846477008A8077309980C901C
:10EDB000226A002A16D00BA920469047EBE720785C
:10EDC00040070FD5B771022508A80573226A002AEB
:10EDD00008D00BA92046904769464870C0B2012868
:10EDE00000D0B57122462E3269462046FEF7E8FB78
:10EDF0007073B079022802D1204600F0F3FA13B004
:10EE0000F0BD0000D4FF01000021425C002A01D0C7
:10EE100001207047491C0629F7D3002070470000E5
:10EE200070B505461C200B49684344182046113034
:10EE30000621FCF7BEF920461021FCF7BAF9FF21A4
:10EE400021740020A176C0432083284600F0ACFF47
:10EE500070BD00009C26002004490818202141565E
:10EE6000042901DB0120704700207047C8270020DB
:10EE70000449081820214156042901D20120704775
:10EE800000207047C827002070B50D00044602D14D
:10EE90000020FCF705FD002C02D10020FCF700FD4E
:10EEA0002878207069886170090AA170A988E170CA
:10EEB000090A2171E8886071000AA07170BD000024
:10EEC00007490979490701D408207047002804D070
:10EED000044949780160002070470E207047000007
:10EEE000782100202C28002030B5124B1B795B07BD
:10EEF00001D4082030BD002805D0002A03D00468C2
:10EF0000002C10D101E00E2030BD0B4B1D68002DF0
:10EF100009D045681889414369185D894543586897
:10EF20002818884201D8072030BD146000205160A5
:10EF300030BD000078210020F8280020FEB50546ED
:10EF400025480E460079400701D40820FEBD002D5B
:10EF500003D02868002834D101E00E20FEBD1F4CEC
:10EF6000216800292DD060892189484361684118B2
:10EF70006868814225D9FFF761FA00280FD06868D8
:10EF8000019029680C2251430F1979680091401AA9
:10EF900039890C46FCF7CAF8002912D101E010208B
:10EFA000FEBD21463046FCF7C1F8002909D1002EEC
:10EFB00007D078894443019881190098001981424B
:10EFC00001D90720FEBD00200246009033462946A5
:10EFD0000320FEF717F8FEBD78210020F828002056
:10EFE00010B507484469601C06D000F00BF80146D4
:10EFF0002046FCF79BF810BD01200007406910BDBA
:10F000000010001001200007006980B27047000066
:10F0100070B500240F482546047044702846FDF75B
:10F02000E1FF6D1C0A2DF9D30B4D6C80FFF7D8FF63
:10F03000861EFFF7E7FF46430648AE60CC306C61A2
:10F040000460048144812C70AC610420EC61686030
:10F05000002070BD2C28002078210020FFB5274813
:10F0600081B000791F4616460D46400702D408209D
:10F0700005B0F0BD002D06D00198002803D0286807
:10F08000002815D101E00E20F2E71D4C2068002871
:10F090000ED0618920896268414389186A6891426B
:10F0A00006D9002E04D0B04202D3F119814201D911
:10F0B0000720DDE70198FFF7C1F900281BD038468B
:10F0C000FFF7BCF9002816D06868FFF7B7F90028E9
:10F0D00011D068683246C1190198FCF751F80096C2
:10F0E00028680C2148432458002202212846019B0D
:10F0F000A0470020BCE71020BAE7000078210020DC
:10F10000F8280020F8B52C4D044628790E46400713
:10F1100001D40820F8BD002C20D0002E1ED020687D
:10F1200000281BD0FFF76EFF0146A088814213D351
:10F13000102811D3E08800280ED0FFF751FF471E9A
:10F14000FFF760FF4743E288A188A8684A43121886
:10F15000974201D3890703D00720F8BD0E20F8BDE0
:10F160006988012926D031600C22144B514370600C
:10F17000CA18506020685850A0881081E0885081DB
:10F18000FFF740FF0646FFF73DFFA188E288401EDB
:10F19000514340183146FBF7DFFF0446FFF732FFCB
:10F1A0000146A86861430818A8606888401C688008
:10F1B0000020F8BD0420F8BD78210020F8280020A8
:10F1C000F8B5044620481E46007915460F4640070C
:10F1D00001D40820F8BD002F05D0002C03D02068F2
:10F1E000002815D101E00E20F8BD1848016800295B
:10F1F0000ED04289018940684A43101862689042E3
:10F2000006D9002D04D0A94202D3A819884201D9F9
:10F210000720F8BD3846FFF711F9002811D0304615
:10F22000FFF70CF900280CD06068FFF707F90028F9
:10F2300007D02B463A46214601200096FDF7E2FE14
:10F24000F8BD1020F8BD000078210020F82800202B
:10F2500010B5114902460878002811D004280FD0B3
:10F26000022A16D0032A0BD10A79120711D48A690F
:10F27000521C8A61032A08D0022802D000F084FAC6
:10F2800010BD487800F0DAFB10BD0D20FCF730FB14
:10F2900010BDFEF785FE10BD78210020F8B50446AC
:10F2A00020481E46007915460F46400701D4082025
:10F2B000F8BD002F05D0002C03D02068002815D100
:10F2C00001E00E20F8BD1848016800290ED04289DF
:10F2D000018940684A4310186268904206D9002D9F
:10F2E00004D0A94202D3A819884201D90720F8BD49
:10F2F0003846FFF7A3F8002811D03046FFF79EF8F4
:10F3000000280CD06068FFF799F8002807D02B463A
:10F310003A46214604200096FDF774FEF8BD102001
:10F32000F8BD000078210020F828002070B50124E5
:10F330000B49600408600B49401088600949403956
:10F340008860094D6C602F20FBF7C4FEAC60074D50
:10F3500000242F202C61FBF7BDFEEC7070BD000077
:10F3600080E100E04013014000100140B021002086
:10F3700030B50A48FF21C57D0022094C0931094BEF
:10F38000002D625007D09969437EC268D154417EF6
:10F39000491C417630BD986930BD0000102800201E
:10F3A00000200040002500401FB501236A4613706D
:10F3B00010720348019106C8684690471FBD0000BF
:10F3C000102800200A780648012A02D0022A05D116
:10F3D00002E04968C16001E00121417001207047ED
:10F3E00080200020F0B5054604462035A87985B078
:10F3F000022819D1697B6846018000260196029691
:10F4000003960496A1888180022787710681039064
:10F4100020462E300490A08901A9A6DF0B490028C0
:10F4200004D0C84208D1AF7105B0F0BD6946687B11
:10F430000988884206D00C20AE71A16A0029F3D059
:10F440008847F1E70320A871EEE70000FCCFFFFF3B
:10F4500008B502490020009108BD0000802000206E
:10F4600010B50121202805DA1A4A8140114201D144
:10F47000194810BD8107C90E002808DA0207120FCB
:10F48000083A9208154B9200D218D26904E082081B
:10F49000134B9200D2181268CA401106890F042932
:10F4A00011D200290FD002290DD00E494C68C30695
:10F4B000DB0E01229A40002C08D0400980000B5836
:10F4C00013430B5004E00448401C10BD0648026082
:10F4D000002010BDFC06FFBC0120000000ED00E094
:10F4E00000E400E0E421002000E100E010B516484F
:10F4F000512101600124642184604160047301464C
:10F50000124800F041F810480A2110300160846070
:10F51000282141600024047301460C48083000F0A3
:10F5200033F809481421203001606E214160032125
:10F530008160047301460548103000F025F8034847
:10F540001038C460447010BDC024002090200020FA
:10F5500010B503680A6889689C1A8C4202D9591A46
:10F56000016010BD01210260017110BD10B54B6832
:10F57000026889689C1A8C4202D95118016010BD3A
:10F5800000210360017110BD0A7B002A03D0496885
:10F590000160002102E009680160012101717047EA
:10F5A00010B5044600790028204602D0FFF7DEFFA0
:10F5B00001E0FFF7CDFF206810BDFFB50746806A68
:10F5C00081B0144600283DD00025384620300090F8
:10F5D00033E00C20B96A68430E18B088801CFE28FE
:10F5E00002D90C2005B0F0BD22880299401C885435
:10F5F00020881622401C80B2208002990A5420885C
:10F60000401C80B2208002994118308800F0C2FB73
:10F610002188401880B22080B288002A0AD0B168C0
:10F6200000290FD0029BC018FBF7AAFD2088B188E3
:10F63000401820806D1C0098EDB2007BA842C8D80D
:10F640000020CFE70720CDE710B5A0B0282110A8F3
:10F65000FBF7AFFD0024072110A810948181601CE6
:10F660000207120F10A810320271601C0207120F5D
:10F6700010A810328272601C0207120F10A81032FC
:10F6800042720120024610A81032C27181732C48C8
:10F6900014902C4815900A2110A80176042118A86E
:10F6A00001771FA818900120014618A81031417158
:10F6B00010A92548FCF7F4FD002801D0FCF7F0F86C
:10F6C00014211AA8FBF775FD0120014618A8103176
:10F6D00041750120014618A81031817500200146AE
:10F6E00018A8C1750120014618A810310176012122
:10F6F0001A94017364211C94017513481AA91838CF
:10F70000FCF708FD002801D0FCF7CAF84021684644
:10F71000FBF74FFD0DA16846FDF720F801200146DB
:10F7200008A8103101770020014608A841776846F3
:10F73000FCF78AFE002801D0FCF7B2F820B010BD1B
:10F74000C5F30100A8200020582400204E6F7264E9
:10F75000696353656D69636F6E647563746F72007E
:10F7600010B50020FDF784F9002801D0FCF798F8C7
:10F77000FDF7CEF8002801D0FCF792F83CDF002816
:10F7800001D0FCF78DF810BD10B50F4900280870A6
:10F7900009D0012811D0022812D0032802D14869CB
:10F7A000FEF73EFC10BD00208861C8610748407824
:10F7B0000028F7D0FDF7FAFB10BD00F0F7F810BDF8
:10F7C00000F056F810BD0000782100202C28002001
:10F7D000002803D00249C860002070470E207047FF
:10F7E000D02100201CB5034901910091694660DFDA
:10F7F0001CBD00008020002070B50E460546144652
:10F8000014211046FBF7D5FC012000212080216146
:10F81000217326726572002D00D0A072002070BD89
:10F8200010B5FCF72FF810BD70B5002901D08C077A
:10F8300001D0072070BD074C0125A16062800649F8
:10F84000636010DF0028F5D125701620FFF708FE51
:10F8500070BD0000D021002021F80100002803D055
:10F8600002490861002070470E207047D021002017
:10F87000F8B5164C142260684008400060601448D7
:10F88000017851430E183769FFF7BCFB0146384633
:10F89000FBF74CFC05466061FFF7B4FB0146F088BE
:10F8A0007F1EC019FBF742FC02228542606801D12D
:10F8B000104300E090436060E1681040084303D0CB
:10F8C000002000F0BBF8F8BD0220FAE77821002004
:10F8D0002C28002010B502484069FEF7A1FB10BD9E
:10F8E0007821002010B5FFF77BFB441EFFF78AFB51
:10F8F0004443FFF787FB04494A69521E5043CA68D4
:10F900002146FEF792FB10BD78210020F8B5104883
:10F910001422017851430C182569FFF773FB014647
:10F92000E088228980184019FBF700FC0F46FFF79A
:10F9300057FB461EFFF766FB4643E0882289F11914
:10F940008018044A40191269FEF76FFBF8BD0000E9
:10F950002C2800207821002070B5FFF753FB0546C6
:10F96000FFF73EFB441EFFF74DFB60432946FBF7C4
:10F97000DDFBFEF755FB70BD70B5FFF743FB860856
:10F98000FFF740FB0749496948430446FFF728FB56
:10F99000451EFFF737FB684332462146FEF745FB1D
:10F9A00070BD0000782100200020704770B5144819
:10F9B0001422017851430C18241DFFF723FB6188A2
:10F9C000104E884211D2FFF71DFB61880D1AFFF718
:10F9D00019FB8208A188E06840182169401949197B
:10F9E000FEF723FBFFF70EFB07E0A288E068801814
:10F9F0008A082169FEF719FB6088F06170BD00007C
:10FA00002C2800207821002010B505480079000737
:10FA100003D4012000F012F810BD00F003F810BD6F
:10FA20007821002010B504480822416891434160C4
:10FA3000407800F003F810BD78210020024948709A
:10FA40000249800008580047782100201000020079
:10FA500010B50446FFF7FCFB2046FCF7DFF910BDAC
:10FA600070B50C00054602D10020FBF719FF002DF0
:10FA700002D10020FBF714FF207828702088FF2196
:10FA800009020840000A6870206809020840000C5A
:10FA9000A8702068000EE87020792871207A6871BB
:10FAA0002089000AA871A068000CE87170BD0000F0
:10FAB00010B505480079000702D4FDF765FA10BDBE
:10FAC000FFF7B0FF10BD000078210020FEB51F4CED
:10FAD00000252769E06802906846FEF731FA019038
:10FAE000FEF7E8FC06460198002822D00023009883
:10FAF000E16817E00E680A46864202D9301A0860AB
:10FB000012E0801BF31800261660D668D169B4464F
:10FB1000002E07D0FE183602360A566066469660FA
:10FB2000D56115460029E5D12846E160FEF720FDA4
:10FB300006E02846FEF71CFD002801D1002E02D069
:10FB40000298FDF7A3FA00202071FEBDB02100202D
:10FB500001200249000508607047000000E200E053
:10FB600010B50E4BD968002906D002680C68A24275
:10FB700004D8A21A0A60C161D86010BD0B4604E027
:10FB80000B46C969121B002904D00C689442F7D3B4
:10FB9000A41A0C600260C161D86110BDB0210020C0
:10FBA000F8B51D4DEC68002C34D01C480027406887
:10FBB0002969401A0602360A2068B04218D8361A57
:10FBC000C7192246107CE46900280FD00020107469
:10FBD0006B69002B07D0916950699847002805D0C0
:10FBE000FBF75EFE02E0516990698847002CE3D183
:10FBF0006978A878814206D1401CC0B2A87002285A
:10FC000001D10020A87004490006800D18310F5062
:10FC1000FFF79EFFF8BD0000B02100200015014055
:10FC2000FF2107481D31002242500648828A816820
:10FC3000895C828A521C82820348C161704700003D
:10FC40000020004010280020002500401FB50021A2
:10FC50006A4611701072044882680192817506C864
:10FC6000684690471FBD000010280020F0B5454DA4
:10FC7000012185B049022846FEF77BFF01270026B7
:10FC8000414C002824D0FF2125312846FEF76CFF87
:10FC900000281DD0FF2025302E5081203B498000B8
:10FCA0008860A07E002800D16F6002216846017044
:10FCB0003749086808600390E17D68460172E06892
:10FCC0000190E675267606CC6846083C90472BE006
:10FCD00004212846FEF74DFF002825D0FF210931D9
:10FCE0002846FEF741FF00281ED0FFF741FBE07DCC
:10FCF000617E884218D1207E002808D0627EE168AB
:10FD0000E0752069E0602676667610460AE0A07EFF
:10FD1000002800D16F6081201C4980008860E67552
:10FD2000607EE168FFF740FBFF211D312846FEF7AA
:10FD30001BFF00280DD0A18AA07D814202D2FFF7CF
:10FD40006FFF06E0FF211D316E50002801D0FFF744
:10FD50007DFFFF2145312846FEF706FF00280ED023
:10FD6000FF2045302E50A07E002800D02F60E07D7F
:10FD7000002804D0E675607EE168FFF715FB05B04A
:10FD8000F0BD0000002000401028002000230040AB
:10FD9000802400400870000A4870022070470870F4
:10FDA000000A4870022070470121814002484268E1
:10FDB0008A434260704700006021002038B5154931
:10FDC000154A488890420FD04A78144C521CD2B23F
:10FDD0004A70237B934208D3091D75DF002803D0A6
:10FDE000A169002900D0884738BD00254D70217CCD
:10FDF000002907D03B2176DF002803D0A169002924
:10FE000000D0884761690029EED0684605708847B0
:10FE100038BD000000210020FFFF000080260020E8
:10FE2000EFF30580C005C00D1AD0103840B200288D
:10FE300008DA0107090F083989080C4A890089186E
:10FE4000C96904E081080A4A89008918096880079D
:10FE5000C00EC1400806800F012803D0032803D03C
:10FE600002207047002070470120704700ED00E03D
:10FE700000E400E042788378521CD2B2934200D171
:10FE800000220378934201D1002070470A70416834
:10FE900040781822504308187047FFB583B01646C3
:10FEA0000C9D0D9C1F46022200950194039800F0C2
:10FEB0000CF8002807D13B461022314600950194EA
:10FEC000039800F002F807B0F0BDFFB583B0074615
:10FED00000200C9C8646268805463AE07868A900F2
:10FEE00042181188684681805188C1800022694685
:10FEF00001A865DF002839D168460178059881425C
:10FF000026D17046002801D0002200E0022220887D
:10FF1000891842180D998A4227D8714600290AD1BA
:10FF2000401C80B22080069A049911542088401CFD
:10FF3000208001208646218806980A18694601A873
:10FF400065DF002812D16946208809784018208092
:10FF50006D1C3888A842C1DC704600280AD0208871
:10FF6000801B401E80B2FF2802D90C2007B0F0BDD4
:10FF7000069988550020F9E70179002902D1007B14
:10FF8000002800D001207047F0210020102200201E
:10FF900001000007F0240020102500203C2500204F
:10FFA0001000000011000000130000001400000009
:10FFB0001000030025C901001100030025C901003C
:10FFC0001300030025C901001400030025C9010026
:10FFD000602600201000000000000000000000006B
:10FFE000EFE8010091E10100ADE001004DE2010008
:10FFF000EBE8010061E10100A9E0010045E2010038
:020000040002F8
:10000000E7E80100B1E00100A5E001003DE20100E8
:1000100059F9010079F90100D5F801000DF9010045
:10002000E5F8010009FA010049D60100F5D5010003
:10003000B1FA0100A5E2010004290020030000003C
:1000400060000200802000207001000028B2010042
:1000500084000200F0210020900F000072B5010022
:10006000210324FFFF100E0405060708090A0B0CE4
:100070000D1618011A0F041A0A04012A0924660130
:04008000DF1324F472
:040000050001B0C185
:00000001FF
